{
  "contractName": "CrossbarTokenSale",
  "abi": [
    {
      "inputs": [
        {
          "internalType": "contract CrossbarToken",
          "name": "_token",
          "type": "address"
        },
        {
          "internalType": "uint256",
          "name": "_price",
          "type": "uint256"
        }
      ],
      "stateMutability": "nonpayable",
      "type": "constructor"
    },
    {
      "anonymous": false,
      "inputs": [
        {
          "indexed": true,
          "internalType": "address",
          "name": "buyer",
          "type": "address"
        },
        {
          "indexed": false,
          "internalType": "uint256",
          "name": "value",
          "type": "uint256"
        }
      ],
      "name": "Sold",
      "type": "event"
    },
    {
      "inputs": [],
      "name": "price",
      "outputs": [
        {
          "internalType": "uint256",
          "name": "",
          "type": "uint256"
        }
      ],
      "stateMutability": "view",
      "type": "function",
      "constant": true
    },
    {
      "inputs": [],
      "name": "token",
      "outputs": [
        {
          "internalType": "contract CrossbarToken",
          "name": "",
          "type": "address"
        }
      ],
      "stateMutability": "view",
      "type": "function",
      "constant": true
    },
    {
      "inputs": [],
      "name": "tokensSold",
      "outputs": [
        {
          "internalType": "uint256",
          "name": "",
          "type": "uint256"
        }
      ],
      "stateMutability": "view",
      "type": "function",
      "constant": true
    },
    {
      "inputs": [
        {
          "internalType": "uint256",
          "name": "_noOfTokens",
          "type": "uint256"
        }
      ],
      "name": "buyTokens",
      "outputs": [],
      "stateMutability": "payable",
      "type": "function",
      "payable": true
    },
    {
      "inputs": [],
      "name": "endSale",
      "outputs": [],
      "stateMutability": "nonpayable",
      "type": "function"
    }
  ],
  "bytecode": "0x60806040526000600360146101000a81548160ff02191690831515021790555034801561002b57600080fd5b506040516108503803806108508339818101604052604081101561004e57600080fd5b81019080805190602001909291908051906020019092919050505033600360006101000a81548173ffffffffffffffffffffffffffffffffffffffff021916908373ffffffffffffffffffffffffffffffffffffffff160217905550816000806101000a81548173ffffffffffffffffffffffffffffffffffffffff021916908373ffffffffffffffffffffffffffffffffffffffff16021790555080600181905550505061074e806101026000396000f3fe60806040526004361061004a5760003560e01c80633610724e1461004f578063380d831b1461007d578063518ab2a814610094578063a035b1fe146100bf578063fc0c546a146100ea575b600080fd5b61007b6004803603602081101561006557600080fd5b8101908080359060200190929190505050610141565b005b34801561008957600080fd5b506100926103aa565b005b3480156100a057600080fd5b506100a9610640565b6040518082815260200191505060405180910390f35b3480156100cb57600080fd5b506100d4610646565b6040518082815260200191505060405180910390f35b3480156100f657600080fd5b506100ff61064c565b604051808273ffffffffffffffffffffffffffffffffffffffff1673ffffffffffffffffffffffffffffffffffffffff16815260200191505060405180910390f35b61014d60015482610671565b341461015857600080fd5b60001515600360149054906101000a900460ff1615151461017857600080fd5b806000809054906101000a900473ffffffffffffffffffffffffffffffffffffffff1673ffffffffffffffffffffffffffffffffffffffff166370a08231306040518263ffffffff1660e01b8152600401808273ffffffffffffffffffffffffffffffffffffffff1673ffffffffffffffffffffffffffffffffffffffff16815260200191505060206040518083038186803b15801561021757600080fd5b505afa15801561022b573d6000803e3d6000fd5b505050506040513d602081101561024157600080fd5b8101908080519060200190929190505050101561025d57600080fd5b6000809054906101000a900473ffffffffffffffffffffffffffffffffffffffff1673ffffffffffffffffffffffffffffffffffffffff1663a9059cbb33836040518363ffffffff1660e01b8152600401808373ffffffffffffffffffffffffffffffffffffffff1673ffffffffffffffffffffffffffffffffffffffff16815260200182815260200192505050602060405180830381600087803b15801561030557600080fd5b505af1158015610319573d6000803e3d6000fd5b505050506040513d602081101561032f57600080fd5b810190808051906020019092919050505061034957600080fd5b806002600082825401925050819055503373ffffffffffffffffffffffffffffffffffffffff167fae92ab4b6f8f401ead768d3273e6bb937a13e39827d19c6376e8fd4512a05d9a826040518082815260200191505060405180910390a250565b3373ffffffffffffffffffffffffffffffffffffffff16600360009054906101000a900473ffffffffffffffffffffffffffffffffffffffff1673ffffffffffffffffffffffffffffffffffffffff161461040457600080fd5b6000809054906101000a900473ffffffffffffffffffffffffffffffffffffffff1673ffffffffffffffffffffffffffffffffffffffff1663a9059cbb600360009054906101000a900473ffffffffffffffffffffffffffffffffffffffff166000809054906101000a900473ffffffffffffffffffffffffffffffffffffffff1673ffffffffffffffffffffffffffffffffffffffff166370a08231306040518263ffffffff1660e01b8152600401808273ffffffffffffffffffffffffffffffffffffffff1673ffffffffffffffffffffffffffffffffffffffff16815260200191505060206040518083038186803b15801561050257600080fd5b505afa158015610516573d6000803e3d6000fd5b505050506040513d602081101561052c57600080fd5b81019080805190602001909291905050506040518363ffffffff1660e01b8152600401808373ffffffffffffffffffffffffffffffffffffffff1673ffffffffffffffffffffffffffffffffffffffff16815260200182815260200192505050602060405180830381600087803b1580156105a657600080fd5b505af11580156105ba573d6000803e3d6000fd5b505050506040513d60208110156105d057600080fd5b81019080805190602001909291905050506105ea57600080fd5b6001600360146101000a81548160ff021916908315150217905550600360009054906101000a900473ffffffffffffffffffffffffffffffffffffffff1673ffffffffffffffffffffffffffffffffffffffff16ff5b60025481565b60015481565b6000809054906101000a900473ffffffffffffffffffffffffffffffffffffffff1681565b60008083141561068457600090506106f1565b600082840290508284828161069557fe5b04146106ec576040517f08c379a00000000000000000000000000000000000000000000000000000000081526004018080602001828103825260218152602001806106f86021913960400191505060405180910390fd5b809150505b9291505056fe536166654d6174683a206d756c7469706c69636174696f6e206f766572666c6f77a2646970667358221220e6cfa681f8404918b0a3904f3a42f88a5b581641398df48eb878a31d380a7d7f64736f6c63430006000033",
  "source": "pragma solidity ^0.6.0;\r\nimport \"./CrossbarToken.sol\";\r\nimport \"./SafeMath.sol\";\r\n\r\ncontract CrossbarTokenSale {\r\n    CrossbarToken public token;\r\n    uint256 public price;\r\n    uint256 public tokensSold;\r\n    address payable admin;\r\n    bool saleEnded = false;\r\n    event Sold(address indexed buyer, uint256 value);\r\n\r\n    constructor(CrossbarToken _token, uint256 _price) public {\r\n        admin = msg.sender;\r\n        token = _token;\r\n        price = _price;\r\n    }\r\n\r\n    function buyTokens(uint256 _noOfTokens) public payable {\r\n        require(msg.value == SafeMath.mul(price, _noOfTokens));\r\n        require(saleEnded == false);\r\n        require(token.balanceOf(address(this)) >= _noOfTokens);\r\n        require(token.transfer(msg.sender, _noOfTokens));\r\n        tokensSold += _noOfTokens;\r\n        emit Sold(msg.sender, _noOfTokens);\r\n    }\r\n\r\n    function endSale() public {\r\n        require(admin == msg.sender);\r\n        require(token.transfer(admin, token.balanceOf(address(this))));\r\n        saleEnded = true;\r\n        selfdestruct(admin);\r\n    }\r\n}\r\n",
  "sourcePath": "C:/Users/Aadhith/Desktop/CrossbarToken_React/contracts/CrossabarTokenSale.sol",
  "compiler": {
    "name": "solc",
    "version": "0.6.0+commit.26b70077.Emscripten.clang"
  },
  "schemaVersion": "3.2.2",
  "updatedAt": "2020-09-25T10:45:57.456Z",
  "networkType": "ethereum",
  "devdoc": {
    "methods": {}
  },
  "userdoc": {
    "methods": {}
  }
}